:0C0000000C94D5000C9400000C9400003F
:10000C000C9400000C9400000C9400000C94000064
:10001C000C9400000C94D2010C9400000C94000081
:10002C000C9400000C9400000C9400000C94000044
:10003C000C9400000C9400000C9400000C94000034
:10004C000C9400000C9400001027E80364000A00D4
:10005C0001000010000110000100802500000300C9
:10006C002B39383931323334353637383900416C25
:10007C006572742054656D7065726174757265205B
:10008C00697320426164416C6572742048756D69B6
:10009C0064697479206973204261640053746174DB
:1000AC007573206F662053656E736F7273005365A2
:1000BC00742047534D0041542B434D47463D310D61
:1000CC000A0050686F6E653A200041542B434D472F
:1000DC00533D222573220D0A0053656E6420534D47
:1000EC00530025730053656E642054656D70000ACF
:1000FC0054656D702069732025750A0053656E6414
:10010C00205248000A48756D6964697479206973D6
:10011C002025750A00444F4E45002563004578693B
:10012C00742047534D0054656D70206973204261F3
:10013C00640054656D703A20002564002E00430065
:10014C0048756D6964697479206973204261640033
:10015C0052483A2000250057656C636F6D6500535B
:10016C00656E642053746174757320534D53000095
:10017C0080C0040004006600010060016A000D00EC
:10018C0076016C00180084017A0015009D01920024
:10019C001100B301A8000200C5017C010000F89415
:1001AC00EE27ECBBF1E0FBBFEBBFE5BF8DE0A2E0BF
:1001BC00BB27ED938A95E9F780E094E0A0E6ED93F8
:1001CC000197E9F7EEE7F1E085919591009761F0E1
:1001DC00A591B59105901590BF01F00105900D9278
:1001EC000197E1F7FB01F0CFEFE5EDBFE4E0EEBFE7
:1001FC00C0E6D1E00C9473028E9A969AA4E6B0E015
:10020C000E94BC069698A4E6B0E00E94BC06969AA2
:10021C0008958E988699FECF869BFECF8699FECF49
:10022C000895AA93E881E7B983E08A95F1F7369AA5
:10023C00349BFECF349AE4B1F5B10C94A9051A9312
:10024C000A9300E010E00830E0E01E0794F4869B6F
:10025C00FECF8AE08A95F1F7869B05C0E72DEE0F5D
:10026C00E1607E2E01C0770C8699FECF0F5F1F4F89
:10027C00EACFE72D099119910895AA930E94C4051C
:10028C00AAEBB0E00E946B05E2ECF0E0FA93EA9383
:10029C0080E00E94EF0422960E94CB050E94CF05BD
:1002AC00AEECB0E00E94D605AC81BD810E945C052D
:1002BC00E6EDF0E00E94DD050E94E205A8EEB3E059
:1002CC000E94BC060E94C405A5EEB0E00E946B051E
:1002DC00EEEEF0E00E94EB050E94E2050E94CB05D9
:1002EC000E94C405A1EFB0E00E946B05EBEFF0E0BB
:1002FC00FA93EA93EB810E94F0050E94C405A8E0F2
:10030C00B1E00E946B05E0E1F1E0FA93EA93EA8137
:10031C000E94F0050E94C405A1E2B1E00E946B05A9
:10032C00E6E2F1E0FA93EA93EAE1F0E060E070E0F3
:10033C000E94DB0684E00E94EF0426960E94CB0507
:10034C000E94FA05A9E2B1E00E946B050E94CB0560
:10035C000E943B05E0E0E093600126960895BA9375
:10036C00AA93E981F070E0BDE881E9B9E0E0EBB96E
:10037C00EAB9E0BD539AE0B5E668E0BD0C943905E6
:10038C00E0E0EFBDE5E0EEBDE9B7E460E9BFEFE723
:10039C00F0E1FDBDECBD0895EA93FA93EFB7EA9353
:1003AC00E0916101EF5FE0936101E0916001EF5F2B
:1003BC00E0936001EFE3FBE1FDBDECBDE991EFBF24
:1003CC00F991E99118950E94FF05A2E3B1E00E9412
:1003DC00D6050E940206A1E00E9409060E94DD05D6
:1003EC000E9412060E941B060E942206E9E00E944F
:1003FC0029060E942D060E94EB050E941206A7E614
:10040C00B1E00E945C05EAE00E942906AAE4B1E092
:10041C0019C00E94FF05ACE4B1E00E94D6050E9411
:10042C0034060E9439060E9412060E944006E6E03D
:10043C000E9429060E9447060E9412060E944E0640
:10044C00A1E6B1E00E946B05249608950E94FF0579
:10045C000E940206A0E00E940906FA93EA93EA853C
:10046C00FB850E9412060E941B06A0E00E942E052E
:10047C00A8E4B1E00E946B05E9E0EA93A0E00E94D9
:10048C002E050E942D06FA93EA93E885F9850E94C1
:10049C001206A7E6B1E00E945C05EAE0EA93A0E050
:1004AC000E942E05AAE4B1E00E94D6050E943406F3
:1004BC000E9439060E9412060E944006E6E00E9445
:1004CC0029060E9447060E9412060E944E06A1E6CB
:1004DC00B1E00E946B052896089500E010E08D9A1B
:1004EC009598EEE0EABBE0E0E7B9E1E8E6B9E0E0D8
:1004FC00E0BFEBB9E8E0EAB9E6E8E0BDE0E0E0BD7A
:10050C00E6E0E9B9D2012BDF3BDF7894E0E0E09341
:10051C006101A0E10E947E050E94CF05A3E6B1E037
:10052C000E946B05A8EBBBE00E94BC060E943B0539
:10053C0063DE6FDE84DE6E2E82DE9E2E80DE8E2EDD
:10054C007EDEBE2E0E9454060E945906E8E2E81593
:10055C0018F0EAE18E1620F4A0916001A33009F0A6
:10056C000AC0D99A0E94CB050E946506E4E8F1E026
:10057C000E946A0601C0D998E8E2E81518F0EAE191
:10058C008E1690F4D99A0E945406AB2DBB271BDF14
:10059C00ACEBB2E00E94BC06D9980E943B05AAE0E5
:1005AC00B0E00E94BC0601C0D998E6E4E61518F04C
:1005BC00E8E26E1620F4A0916001A33009F00AC0A5
:1005CC00DA9A0E94CB050E946506EDE9F1E00E94E3
:1005DC006A0601C0DA98E6E4E61518F0E8E26E1651
:1005EC00A0F4DA9AE62DF0E0FA93EA93A92DBB2752
:1005FC0010DFACEBB2E00E94BC06DA98A6E4B0E0E7
:10060C000E94BC060E943B0501C0DA98A0916101D2
:10061C00AA3001F50E94CF05ABE6B1E00E946B0554
:10062C000E94CB05DB9A0E9454060E945906A0ED4D
:10063C00B7E00E94BC060E946506E3EBF1E0FA937A
:10064C00EA938A92A62D19DEE0E0E09361010E9404
:10065C003B0501C0DB98A0E0E4DD8F01053FE1E044
:10066C001E0708F09598043FE1E01E0708F4959AE0
:10067C000E94CB055DCFFFCFAA935D9BFECFE88197
:10068C00ECB90C94A905BA93AA93AA81F5DFA881B9
:10069C00B9810E9474060C947C05BA93AA931A93A0
:1006AC000A93AA81BB8112960E94D306309729F136
:1006BC00AA81BB8114960E94D3068F01309761F0FA
:1006CC000230E0E01E0780F0F80131978F01AA811B
:1006DC00BB811496ED93FC93AA81BB8112960E9468
:1006EC0074063197AC81A083AA81BB810E94D3068A
:1006FC00FF2312F00E94740606C0AA81BB81EFEFA3
:10070C00FFEFED93FC931981088125960895BA9318
:10071C00AA9326970E94E00610E0AC85BD85E0E028
:10072C00F0E0ED93FC93EA89FB893196EA8BFB8B25
:10073C003197E4912E2FE03009F415C1E12FE03010
:10074C0039F4253211F411E002C00E947A060AC174
:10075C00E130A9F4253219F40E947A0602C112E0A4
:10076C0040E000E02D3211F401E0FCC02B3211F41A
:10077C004BE2F8C0203211F440E2F4C002C0E23087
:10078C0039F450E013E0203311F40068EBC003C0DF
:10079C00E33009F0E7C0203310F02A3308F007C02B
:1007AC00AAE05A9F502DE22FE0535E0FDBC0E22FE0
:1007BC00E33649F40E948106E889F989A481AA9359
:1007CC000E948706CEC0E33741F40E9481060E9446
:1007DC008D060E94AB051E2F0AC0E03761F40E9403
:1007EC0081060E948D060E94B7051E2F08600260CC
:1007FC000F7730E034C0E43611F0E93611F40460C0
:10080C0002C0E53731F4E4E5F0E0EE83FF8315E058
:10081C000CC0E83511F4086003C0E83709F0A1C03A
:10082C00EEE5F0E0EE83FF8314E002FF14C00E94BB
:10083C0081060E949706AB85AA233AF4EA85FB85CC
:10084C000E94CA06EA87FB874DE2403011F01F5F19
:10085C0001C00B7F04C00E9481060E94970600FD18
:10086C0011C0151778F407FF08C002FF04C00B7FF6
:10087C00242F115001C020E301C020E20E947A060F
:10088C005150EFCF312F01FF17C03030A1F003FFD3
:10089C0006C0EE81FF812591EE83FF8305C0AE81FA
:1008AC00BF812D91AE83BF830E947A06503009F030
:1008BC0051503150EACF4BC020E3EE81FF810E94B2
:1008CC00D706E887F987EE81FF813296EE83FF83A6
:1008DC00E885F985AA85BB85AE17BF0750F02F5F59
:1008EC00A885B985EA85FB85EA1BFB0BEA87FB87A4
:1008FC00EFCF2A3328F003FF02C0295F01C0295D26
:10090C0004FD1AC0213320F4A885B985119709F488
:10091C0009C0531710F000FF01C013C020E207FFFD
:10092C000BC020E3006102FF07C00B7F4A930E94BB
:10093C008706503009F051500E947A06503009F069
:10094C0051503150A885B985129708F0B5CF00FFEA
:10095C0008C0503031F05150E0E2EA930E94870613
:10096C00F8CF10E0E0CEAC85BD850E94D3060E9486
:10097C00E70664960895FF92F82E26970E94E206E9
:10098C000E949F06309719F4EFEFFFEF1DC0DE01B8
:10099C0016960E94C6068D010E949F06EE83FF8369
:1009AC00E0E0E887E987DE011A960E94A606E3E5F7
:1009BC00F3E0FA93EA93DE011A96A9DE9F01AE8169
:1009CC00BF81E0E0EC93F9010E94E9062A96FF90C2
:1009DC000895FF92F82E26971A930A93DE01149627
:1009EC000E94C6068D01E0E0EC83ED83EE83EF837D
:1009FC00DE0118960E94A606E9E4F3E0FA93EA9366
:100A0C00DE01189684DE198108812896FF900895DE
:100A1C00AA93E8B3EF70AE2FE881E07FEA2BE8BB36
:100A2C0082E08A95F1F7C29A82E08A95F1F7C29832
:100A3C0082E08A95F1F787C0AA93A881E9DFE88163
:100A4C00E295E883A881E4DF81E18A95F1F77BC028
:100A5C00AA93E881F0E0EB53FE4FE081A981AE0F41
:100A6C00EBDFA980D88022960895A2E00E94AF0601
:100A7C00ACE0E2DFA1E00E94AF06E0E0DE2EAE2E9D
:100A8C000895AA93A881AA3011F0AC1448F0E0E0C4
:100A9C00EA93D394AD2DDCDFA881AA3009F453C0BE
:100AAC00A394C09AA881C8DFC0984DC0BA93AA93EA
:100ABC001A93A981BA81ED91A983BA831E2FE030D4
:100ACC0019F0A12FDEDFF5CF10C0BA93AA931A93B9
:100ADC00E981FA813196E983FA833197E4911E2FEB
:100AEC00E03019F0A12FCDDFF3CF188123960895B4
:100AFC00AA93E7B3E06FE7BBBA9AB89AB99AC298CF
:100B0C00C098C198C880E881E058E093C701E8819B
:100B1C00E054E093C801A4E1B0E00E94BC060E943E
:100B2C00B5060E94B5060E94B506A0E271DF81E20F
:100B3C008A95F1F7A8E280DFA4E07EDFA5E87CDFF0
:100B4C00A6E07ADF92DF21960895BA93AA93A99131
:100B5C00B991EE27FF276D91662311F03196FBCFEB
:100B6C000895BA93AA93AA27BB27E991F991059006
:100B7C00002011F01196FBCFFD0108950E943B055A
:100B8C00E4E0EA93A0E00C942E05A4EFB1E00C9401
:100B9C00BC060E943B05E0E0EA93A0E00C942E0515
:100BAC000E946B05E0E0EA93A1E00C942E05FA9309
:100BBC00EA93EE81FF810895662777270E94DB0672
:100BCC0084E00E94EF0426960895FA93EA93EC8150
:100BDC00FD810895FF27662777270E94DB0684E0B6
:100BEC000E94EF042696D1CFE3E0EA93A1E00C94A7
:100BFC002E05BA93AA93CDCFAEE3B1E00E946B055C
:100C0C00E6E0EA9308950E942E05E2E6F1E0FA93FD
:100C1C00EA93E5E4F1E008950E94CE060E94DB061B
:100C2C0084E00E94C10428960895A2E6B1E00E94D7
:100C3C005C05E8E0EA930895A1E00E942E05A8E483
:100C4C00B1E00C946B05EA93A1E00C942E05E7E659
:100C5C00F1E0FA93EA93E5E4F1E00895ACE5B1E054
:100C6C000E946B05C1CFECE6F1E0FA93EA93E5E460
:100C7C00F1E09DCFACE6B1E00E945C05E5E0EA93C3
:100C8C00DBCFE1E7F1E0FA93EA93E5E4F1E09DCF05
:100C9C00A1E7B1E00E945C05E7E0D5CFE82DF0E0DC
:100CAC00FA93EA930895EB2DF0E0FA93EA93E62D8C
:100CBC00F0E0FA93EA93A92DBB270C942C02E6E7FB
:100CCC00F1E0FA93EA930895FA93EA938A92A62DA7
:100CDC000E944301A2E3B0E00C94BC06ED91FD919F
:100CEC003196FE93EE9308952A93AD85BE85EF85DC
:100CFC00F88909950895E889F9893497E88BF98B77
:100D0C000895AD85BE85EF85F88909950895A88964
:100D1C00B98914960E94D306EE83FF83AE81BF81FE
:100D2C000895A889B98914960E94D306EA87FB878F
:100D3C000895DE011C960E94C6060E94D3060895F3
:100D4C000E94C6060E94D306FA93EA931A930A935A
:100D5C0008950E942205A3E0B0E00C94BC06A0E329
:100D6C000E940E0581E28A95F1F70895109639F0EC
:100D7C00A8958AEF90E00197F1F71197C9F70895BC
:100D8C000024AF0DB01D0895F195E195F040089544
:100D9C006F2F660F660B762F0895ED91FC911197CE
:100DAC0008950590F491E02D08957A936A93FA933F
:100DBC00EA9308955A934A933A932A931A930A936F
:100DCC0008955D814C813B812A81198108810895A8
:00000001FF
